S01800004C43445F313678325F54657374696E672E737265638C
S11300000C942A000C943F000C943F000C943F0085
S11300100C943F000C943F000C943F000C943F0060
S11300200C943F000C943F000C943F000C943F0050
S11300300C943F000C943F000C943F000C943F0040
S11300400C943F000C943F000C943F000C943F0030
S11300500C943F0011241FBECFE5D8E0DEBFCDBF16
S113006010E0A0E6B0E0ECE1F2E002C005900D92F1
S1130070A038B107D9F70E9441000C940C010C94EC
S113008000000E94970080E690E00E94FD002FEFA0
S113009083ED90E3215080409040E1F700C00000E0
S11300A00E94C30080E790E00E94FD002FEF83EDE3
S11300B090E3215080409040E1F700C000000E948E
S11300C0C300E1CFC1989BB39F709BBB9BB3282F08
S11300D0207F922B9BBBC39AEFE3FCE93197F1F7A6
S11300E000C00000C398EFE9FFE03197F1F700C0CA
S11300F000009BB39F709BBB2BB3F0E18F9FC001AB
S11301001124822B8BBBC39A8FE39CE90197F1F7EF
S113011000C00000C3980895C1988BBBC39A8FE3B5
S11301209CE90197F1F700C00000C39808958AB3D1
S1130130806F8ABB87B38E6087BBC29888E20E94B7
S11301408C008FE39CE90197F1F700C0000081E087
S11301500E9462008FE39CE90197F1F700C0000060
S113016080E80E9462008FE39CE90197F1F700C0E8
S113017000008CE00E9462008FE39CE90197F1F794
S113018000C0000008958FE39CE90197F1F700C0D7
S1130190000081E00E9462008FE39CE90197F1F77F
S11301A000C000000895C19A9BB39F709BBB9BB392
S11301B0282F207F922B9BBBC39AEFE3FCE9319756
S11301C0F1F700C00000C398EFE9FFE03197F1F7C1
S11301D000C000009BB39F709BBB2BB3F0E18F9FCB
S11301E0C0011124822B8BBBC39A8FE39CE9019736
S11301F0F1F700C00000C3980895CF93DF93EC019A
S11302008881882331F021960E94D300899181113D
S10F0210FBCFDF91CF910895F894FFCF4D
S113021C49204C4F564520594F5520464F464100D6
S113022C594F55204C4F5645204D453F203A2800F8
S9030000FC
